:100000008BC00000A4C00000A2C00000A0C000007F
:100010009EC000009CC000009AC0000098C0000074
:1000200096C0000094C0000092C000001FC50000F0
:100030008EC000008CC000008AC0000088C0000094
:1000400086C0000084C0000082C0000080C00000A4
:100050007EC000007CC000007AC0000078C00000B4
:1000600076C0000074C0000072C0000070C00000C4
:100070006EC000001201100102000008EB034420D2
:1000800003000102000109024300020100C032091D
:1000900004000001020201000524000110052401F2
:1000A0000301042402060524060001070582030853
:1000B00000FF09040100020A0000000705040240D5
:1000C000000007058302040000040309041A034822
:1000D0000061006E0073002000480075006500623A
:1000E000006E006500720000002C03310036002015
:1000F0000050006F0072007400200044004D005852
:1001000000200049006E0074006500720066006106
:10011000006300650000000011241FBECFEFD2E095
:10012000DEBFCDBF11E0A0E0B1E0E6EEFBE002C033
:1001300005900D92A635B107D9F711E0A6E5B1E01B
:1001400001C01D92A93AB107E1F7C0D04AC558CF06
:10015000FC01469AF894662309F43CC080818BB96F
:10016000818185B9329662500000000000000000D5
:10017000000000000000000000000000000000007F
:10018000000000000000000000000000000000006F
:10019000000000000000000000000000000000005F
:1001A000000000000000000000000000000000004F
:1001B000000000000000000000000000000000003F
:1001C00000000000000000000000000000006623A6
:1001D00009F0C4CF7894469808950F931F93CF9356
:1001E000DF9384E08093E900109257018091E8004A
:1001F00082FF4EC08091F200882309F45DC030E098
:100200008091F100E32FF0E0E85AFE4F80833F5FDA
:100210008091F2008823A1F7309357018091E80084
:10022000982F9B7F9093E8008F778093E80033238B
:1002300079F12091550190915601C8E5D1E0032F45
:1002400010E00C0F1D1F0EC0882381F5449A85E233
:1002500091E060E37DDF449822E090E02196C017B2
:10026000D10791F08881992379F7853519F1E22F2B
:10027000F0E0E15FFE4F80832F5F223171F090E06C
:100280002196C017D10771F720935501909356011D
:10029000DF91CF911F910F910895459A8FE091E0E2
:1002A00066E156DF459822E090E0D8CF8535F9F237
:1002B00090E0E6CF91E0D2CF8091E800982F9B7F2D
:1002C0009093E8008F778093E800E2CF1F93CF935D
:1002D000DF9384B7877F84BF88E10FB6F89480935B
:1002E0006000109260000FBE80E090E020E80FB642
:1002F000F89420936100809361000FBE8FEF84B962
:100300008AB980EF87B912E010939801A1D31093B6
:100310009801C0E0D1E006C0249681E0C830D8073B
:1003200009F428978A818823B9F3E881F98109952E
:10033000F3CF8091A1018132A1F18232D9F08032D4
:1003400009F008958091A0018132D9F78091E800E9
:10035000877F8093E80088E091E067E070E0F1D269
:100360008091E800982F9E7F9093E8008F7780938C
:10037000E80008958091A001813219F78091E8008A
:10038000877F8093E8008091E80080FFFCCF809118
:10039000E800982F9E7F9093E8008F778093E80085
:1003A00008958091A001813A61F68091E800877FED
:1003B0008093E80088E091E067E070E053D280919C
:1003C000E800982F9B7F9093E8008F778093E80058
:1003D000089582E061EC42E01BD283E061E842E0F4
:1003E00017D284E060E846E313D28DEE90E061E03E
:1003F00043C08DEE90E060E03FD088ED95E060E096
:100400003BC088ED95E061E037C0DA019230F1F051
:10041000933091F0913041F0E0E0F0E020E030E006
:10042000ED93FC93C9010895E4E7F0E022E130E0A8
:10043000ED93FC93C9010895813081F08130A0F4DF
:10044000E9ECF0E08491282F30E0EACFE6E8F0E034
:1004500023E430E0ED93FC93C9010895EDECF0E066
:100460008491282F30E0DCCF8230B1F6E9EEF0E065
:100470008491282F30E0D4CF9C018091980188236B
:10048000E1F0809100019091010182179307B1F092
:10049000E0E0F1E005C0808191818217930781F04F
:1004A00034968091980190E0880F991F880F991FCA
:1004B00080509F4FE817F90771F70895E0E0F1E0E9
:1004C000628308950F931F93DF93CF9300D0CDB72E
:1004D000DEB700EA11E08091F100F80181938F010D
:1004E000F1E0083A1F07B9F78091A0019091A101AE
:1004F000953009F4ACC09630F8F0983009F4F6C0A5
:10050000993009F483C0963009F4BCC012DF8091A1
:10051000E80083FF0AC08091EB0080628093EB00CB
:100520008091E800877F8093E8000F900F90CF9133
:10053000DF911F910F9108959130E9F19130C0F54D
:10054000803809F4EDC0823809F78091A4018093C6
:10055000E9008091EB0090E09695879592958295C1
:100560008F7089279F708927982F91701092E900CA
:100570008091E800877F8093E8009093F1001092CB
:10058000F1008091E800982F9E7F9093E8008F778C
:100590008093E8008091E80082FFFCCF8091E80022
:1005A000982F9B7F9093E8008F778093E800AFCFE0
:1005B000933009F0ABCF823009F0A8CF8091A2012F
:1005C000882399F42091A401237009F4A0CF2093EB
:1005D000E9008091EB0080FF08C0913009F4FDC074
:1005E0008091EB0080628093EB001092E900809193
:1005F000E800877F8093E8008091E800982F9E7F35
:100600009093E8008F778093E80081CF882309F0EA
:100610007DCF30919D012091A201223008F077CF4B
:100620008091E800877F8093E80020939D0180916E
:10063000E800982F9E7F9093E8008F778093E800E2
:10064000332319F4222309F00AD2C3DE60CF8823B2
:1006500009F05CCF8091E800877F8093E80080916B
:10066000E800982F9E7F9093E8008F778093E800B2
:100670008091E80080FFFCCF8091A2018068809388
:10068000E30045CF8058823008F040CF8091A2012E
:100690009091A3016091A401AE014F5F5F4FB5DE61
:1006A0009C01009709F433CF8091E800877F809305
:1006B000E800D8019E918E9128173907D0F5309324
:1006C000A7012093A60179811A812091A60130917A
:1006D000A7018091E80080FD33C08091E80082FF8F
:1006E000F8CF3093A7012093A60158CF803809F0A6
:1006F0000DCF8091E800877F8093E80080919D0175
:100700008093F1008091E800982F9E7F9093E800FD
:100710008F778093E8008091E80082FFFCCF3ECF86
:1007200090919B0180919C01882309F421CF9260D4
:100730001FCF892B41F68091E80082FFFCCF2ECF9E
:10074000872F912FFC01A9010AC084918093F100A9
:1007500021503040319621153105D9F0A9017E2F65
:100760001F2F8091F200883080F39A018091F2006F
:1007700060E0883009F461E08091E800982F9E7F66
:100780009093E8008F778093E800232BE1F19A01A2
:10079000A0CF1092A7011092A6018091F20060E014
:1007A000883009F461E08091E800982F9E7F909353
:1007B000E8008F778093E800662309F4BCCF80912E
:1007C000E80080FFFCCF8091E800982F9E7F9093F7
:1007D000E8008F778093E800AECF8091EB008061D6
:1007E0008093EB0081E090E002C0880F991F2A956A
:1007F000E2F78093EA001092EA008091EB008860B3
:100800008093EB00F2CE4093A60111965C93D4CF77
:100810008093E9008091EB0081608093EB0010925F
:10082000ED006093EC004093ED008091EE00881F96
:100830008827881F08951092F40090E09093E900B3
:100840001092F0001092E8008091ED008D7F80936F
:10085000ED008091EB008E7F8093EB009F5F9530E1
:1008600069F70895DC01E091A601F091A701AB01C1
:10087000E617F70708F4AF014115510509F45FC009
:100880008091E80082FD5BC0FD018091E80080FF5F
:10089000FCCF8091F200883008F18091F20020E0D6
:1008A000883009F44AC08091E800982F9E7F909389
:1008B000E8008F778093E8004115510519F1809188
:1008C000E80082FFE2CF8091E80082FF1FC081E054
:1008D000089531968091F2008830F8F680818093F7
:1008E000F10041505040A9F78091F20020E088309B
:1008F00011F18091E800982F9E7F9093E8008F7708
:100900008093E8008091E80082FDE1CF222369F026
:100910008091E80080FFFCCF8091E800982F9E7FB7
:100920009093E8008F778093E8008091E80082FF41
:10093000FCCF80E0089521E0DCCF21E0B4CF20E0BF
:10094000E1CF61157105A9F0FC018091E80082FFFB
:10095000FCCF8091F2008823B9F48091E800982FB1
:100960009B7F9093E8008F778093E8006115710575
:1009700061F78091E80080FFFCCF80E00895319618
:100980008091F200882349F38091F10080836150C7
:100990007040A9F78091E800982F9B7F9093E80022
:1009A0008F778093E8008091E80080FFE2CFE5CF69
:1009B00057D059D010929F0110929D011092A8011A
:1009C00010929C0110929B0184E089BD89B58260E0
:1009D00089BD09B400FEFDCF8091D800982F9F7784
:1009E0009093D80080688093D800809163008E7FB8
:1009F000809363008091D8008F7D8093D800809190
:100A0000E0008E7F8093E0008091E200816080931F
:100A1000E2008091E20088608093E2000895809176
:100A20009F01882309F0E5DC8091E00081608093DC
:100A3000E00016D018D010929F0110929E011092E3
:100A40009D018091D8008F778093D80019BC0895BC
:100A5000E6DFAEDF81E080939E01789408950895EB
:100A60001092E20008951092E10008951F920F92F3
:100A70000FB60F9211242F933F934F935F936F9371
:100A80007F938F939F93AF93BF93EF93FF93809147
:100A9000E10080FF04C08091E20080FD62C080918F
:100AA000E10084FF28C08091E20084FF24C084E03C
:100AB00089BD89B5826089BD09B400FEFDCF8091F2
:100AC000D8008F7D8093D8008091E1008F7E809345
:100AD000E1008091E2008F7E8093E2008091E2004D
:100AE00081608093E20080919F01882309F45BC0BC
:100AF0001092A801B4DF8091E10083FF04C08091CF
:100B0000E20083FD11C0FF91EF91BF91AF919F91E2
:100B10008F917F916F915F914F913F912F910F90A6
:100B20000FBE0F901F9018958091E100877F8093F2
:100B3000E10010929D018091E1008E7F8093E100A1
:100B40008091E2008E7F8093E2008091E2008061DC
:100B50008093E20070DE80E060E042E059DE7FDFFB
:100B6000D2CF8091E1008E7F8093E1008091E200FE
:100B70008E7F8093E2008091E20080618093E200AA
:100B80008091D80080628093D80019BC81E0809366
:100B9000A80165DF80919F01882309F480CF10921E
:100BA0009F0127DC7CCF81E080939F012ADCA0CFCE
:100BB0000F931F9380919F01882359F00091E900C2
:100BC0001092E9008091E80083FD06C00370009355
:100BD000E9001F910F9108951FB7F89473DC1FBFB0
:060BE000F5CFF894FFCFF1
:100BE600D8050000ED000000802500000000080088
:100BF60000FFFFFFFFFFFFFFFFFFFFFFFFFFFFFFFE
:100C0600FFFFFFFFFF0000000000000000000000E3
:100C160000000000000000000000000000000000CE
:100C260000000000000000000000000000000000BE
:060C360000FFFFFFFF02BA
:00000001FF
