:1000000012C02AC029C028C027C026C025C024C0CD
:1000100023C022C021C020C01FC01EC01DC01CC0E4
:100020001BC01AC019C011241FBECFEDCDBF10E0F8
:10003000A0E6B0E0E6EDF0E003C0C89531960D9281
:10004000A036B107D1F710E0A0E6B0E001C01D92E4
:10005000A036B107E1F70EC0D3CF292F332722B93D
:1000600089B9549853988EE083B908955D9BFECF6B
:100070008CB90895CFEDD0E0DEBFCDBF89E781BB5D
:1000800082B312BA969A82E090E0E7DF959A91984F
:10009000929A949A8DE091E00197F1F7000000C0E8
:1000A000919A92988BE38A9501F0E9F7C89580E4DC
:1000B0008BB988E08AB9949880E0D8DFCFEFD1E09F
:1000C00080E8D4DF8FE7D2DF2197D7FFF9CF5E9B9F
:0600D000FECF5398DCCFC7
:00000001FF
